{
  "contractName": "MedicalRecord",
  "abi": [
    {
      "anonymous": false,
      "inputs": [
        {
          "indexed": true,
          "internalType": "address",
          "name": "patientAddress",
          "type": "address"
        },
        {
          "indexed": false,
          "internalType": "string",
          "name": "name",
          "type": "string"
        },
        {
          "indexed": false,
          "internalType": "string",
          "name": "medicalFolder",
          "type": "string"
        },
        {
          "indexed": false,
          "internalType": "string",
          "name": "phoneNumber",
          "type": "string"
        },
        {
          "indexed": false,
          "internalType": "string",
          "name": "email",
          "type": "string"
        },
        {
          "indexed": false,
          "internalType": "uint256",
          "name": "age",
          "type": "uint256"
        },
        {
          "indexed": false,
          "internalType": "string",
          "name": "gender",
          "type": "string"
        }
      ],
      "name": "PatientRegistered",
      "type": "event"
    },
    {
      "anonymous": false,
      "inputs": [
        {
          "indexed": true,
          "internalType": "address",
          "name": "patientAddress",
          "type": "address"
        },
        {
          "indexed": false,
          "internalType": "uint256",
          "name": "temperature",
          "type": "uint256"
        },
        {
          "indexed": false,
          "internalType": "uint256",
          "name": "timestamp",
          "type": "uint256"
        }
      ],
      "name": "TemperatureRecorded",
      "type": "event"
    },
    {
      "inputs": [
        {
          "internalType": "uint256",
          "name": "",
          "type": "uint256"
        }
      ],
      "name": "patientAddresses",
      "outputs": [
        {
          "internalType": "address",
          "name": "",
          "type": "address"
        }
      ],
      "stateMutability": "view",
      "type": "function",
      "constant": true
    },
    {
      "inputs": [
        {
          "internalType": "address",
          "name": "",
          "type": "address"
        }
      ],
      "name": "patients",
      "outputs": [
        {
          "internalType": "string",
          "name": "name",
          "type": "string"
        },
        {
          "internalType": "string",
          "name": "medicalFolder",
          "type": "string"
        },
        {
          "internalType": "string",
          "name": "phoneNumber",
          "type": "string"
        },
        {
          "internalType": "string",
          "name": "email",
          "type": "string"
        },
        {
          "internalType": "uint256",
          "name": "age",
          "type": "uint256"
        },
        {
          "internalType": "string",
          "name": "gender",
          "type": "string"
        },
        {
          "internalType": "string",
          "name": "medicalDescription",
          "type": "string"
        },
        {
          "internalType": "bool",
          "name": "exists",
          "type": "bool"
        }
      ],
      "stateMutability": "view",
      "type": "function",
      "constant": true
    },
    {
      "inputs": [
        {
          "internalType": "string",
          "name": "_name",
          "type": "string"
        },
        {
          "internalType": "string",
          "name": "_medicalFolder",
          "type": "string"
        },
        {
          "internalType": "string",
          "name": "_phoneNumber",
          "type": "string"
        },
        {
          "internalType": "string",
          "name": "_email",
          "type": "string"
        },
        {
          "internalType": "uint256",
          "name": "_age",
          "type": "uint256"
        },
        {
          "internalType": "string",
          "name": "_gender",
          "type": "string"
        },
        {
          "internalType": "string",
          "name": "_medicalDescription",
          "type": "string"
        }
      ],
      "name": "registerPatient",
      "outputs": [],
      "stateMutability": "nonpayable",
      "type": "function"
    },
    {
      "inputs": [
        {
          "internalType": "uint256",
          "name": "_temperature",
          "type": "uint256"
        }
      ],
      "name": "recordTemperature",
      "outputs": [],
      "stateMutability": "nonpayable",
      "type": "function"
    },
    {
      "inputs": [
        {
          "internalType": "address",
          "name": "_patientAddress",
          "type": "address"
        }
      ],
      "name": "getPatientData",
      "outputs": [
        {
          "internalType": "string",
          "name": "name",
          "type": "string"
        },
        {
          "internalType": "string",
          "name": "medicalFolder",
          "type": "string"
        },
        {
          "internalType": "string",
          "name": "phoneNumber",
          "type": "string"
        },
        {
          "internalType": "string",
          "name": "email",
          "type": "string"
        },
        {
          "internalType": "uint256",
          "name": "age",
          "type": "uint256"
        },
        {
          "internalType": "string",
          "name": "gender",
          "type": "string"
        },
        {
          "internalType": "string",
          "name": "medicalDescription",
          "type": "string"
        },
        {
          "internalType": "uint256[]",
          "name": "temperatures",
          "type": "uint256[]"
        },
        {
          "internalType": "uint256[]",
          "name": "timestamps",
          "type": "uint256[]"
        }
      ],
      "stateMutability": "view",
      "type": "function",
      "constant": true
    },
    {
      "inputs": [
        {
          "internalType": "string",
          "name": "_name",
          "type": "string"
        },
        {
          "internalType": "string",
          "name": "_medicalFolder",
          "type": "string"
        },
        {
          "internalType": "string",
          "name": "_phoneNumber",
          "type": "string"
        },
        {
          "internalType": "string",
          "name": "_email",
          "type": "string"
        },
        {
          "internalType": "uint256",
          "name": "_age",
          "type": "uint256"
        },
        {
          "internalType": "string",
          "name": "_gender",
          "type": "string"
        },
        {
          "internalType": "string",
          "name": "_medicalDescription",
          "type": "string"
        }
      ],
      "name": "updatePatientInfo",
      "outputs": [],
      "stateMutability": "nonpayable",
      "type": "function"
    },
    {
      "inputs": [
        {
          "internalType": "string",
          "name": "_name",
          "type": "string"
        },
        {
          "internalType": "string",
          "name": "_folderNumber",
          "type": "string"
        }
      ],
      "name": "searchPatient",
      "outputs": [
        {
          "internalType": "string",
          "name": "name",
          "type": "string"
        },
        {
          "internalType": "string",
          "name": "medicalFolder",
          "type": "string"
        },
        {
          "internalType": "uint256",
          "name": "age",
          "type": "uint256"
        },
        {
          "internalType": "string",
          "name": "gender",
          "type": "string"
        },
        {
          "internalType": "string",
          "name": "email",
          "type": "string"
        },
        {
          "internalType": "string",
          "name": "phoneNumber",
          "type": "string"
        },
        {
          "internalType": "string",
          "name": "medicalDescription",
          "type": "string"
        },
        {
          "internalType": "uint256[]",
          "name": "temperatures",
          "type": "uint256[]"
        },
        {
          "internalType": "uint256[]",
          "name": "timestamps",
          "type": "uint256[]"
        }
      ],
      "stateMutability": "view",
      "type": "function",
      "constant": true
    },
    {
      "inputs": [],
      "name": "getAllPatientAddresses",
      "outputs": [
        {
          "internalType": "address[]",
          "name": "",
          "type": "address[]"
        }
      ],
      "stateMutability": "view",
      "type": "function",
      "constant": true
    }
  ],
  "bytecode": "0x608060405234801561001057600080fd5b50611ac8806100206000396000f3fe608060405234801561001057600080fd5b50600436106100885760003560e01c8063b40f16911161005b578063b40f16911461010f578063bfb299c11461012f578063cf7dd0ce14610142578063e23853031461015557610088565b80630869cfbc1461008d57806348e81852146100bd57806392be3e65146100e5578063b29b1fef146100fa575b600080fd5b6100a061009b366004611422565b61017d565b6040516100b498979695949392919061186e565b60405180910390f35b6100d06100cb366004611422565b6104f0565b6040516100b4999897969594939291906117b7565b6100ed61099e565b6040516100b491906116f6565b61010d6101083660046114b1565b610a00565b005b61012261011d3660046115aa565b610ad4565b6040516100b491906116e2565b61010d61013d3660046115aa565b610afe565b61010d6101503660046114b1565b610baa565b610168610163366004611450565b610d63565b6040516100b499989796959493929190611904565b60006020819052908152604090208054819061019890611a1a565b80601f01602080910402602001604051908101604052809291908181526020018280546101c490611a1a565b80156102115780601f106101e657610100808354040283529160200191610211565b820191906000526020600020905b8154815290600101906020018083116101f457829003601f168201915b50505050509080600101805461022690611a1a565b80601f016020809104026020016040519081016040528092919081815260200182805461025290611a1a565b801561029f5780601f106102745761010080835404028352916020019161029f565b820191906000526020600020905b81548152906001019060200180831161028257829003601f168201915b5050505050908060020180546102b490611a1a565b80601f01602080910402602001604051908101604052809291908181526020018280546102e090611a1a565b801561032d5780601f106103025761010080835404028352916020019161032d565b820191906000526020600020905b81548152906001019060200180831161031057829003601f168201915b50505050509080600301805461034290611a1a565b80601f016020809104026020016040519081016040528092919081815260200182805461036e90611a1a565b80156103bb5780601f10610390576101008083540402835291602001916103bb565b820191906000526020600020905b81548152906001019060200180831161039e57829003601f168201915b5050505050908060040154908060050180546103d690611a1a565b80601f016020809104026020016040519081016040528092919081815260200182805461040290611a1a565b801561044f5780601f106104245761010080835404028352916020019161044f565b820191906000526020600020905b81548152906001019060200180831161043257829003601f168201915b50505050509080600601805461046490611a1a565b80601f016020809104026020016040519081016040528092919081815260200182805461049090611a1a565b80156104dd5780601f106104b2576101008083540402835291602001916104dd565b820191906000526020600020905b8154815290600101906020018083116104c057829003601f168201915b5050506009909301549192505060ff1688565b6001600160a01b038116600090815260208190526040812060090154606091829182918291829081908190819060ff166105455760405162461bcd60e51b815260040161053c906119d5565b60405180910390fd5b60008060008c6001600160a01b03166001600160a01b0316815260200190815260200160002090508060000181600101826002018360030184600401548560050186600601876007018860080188805461059e90611a1a565b80601f01602080910402602001604051908101604052809291908181526020018280546105ca90611a1a565b80156106175780601f106105ec57610100808354040283529160200191610617565b820191906000526020600020905b8154815290600101906020018083116105fa57829003601f168201915b5050505050985087805461062a90611a1a565b80601f016020809104026020016040519081016040528092919081815260200182805461065690611a1a565b80156106a35780601f10610678576101008083540402835291602001916106a3565b820191906000526020600020905b81548152906001019060200180831161068657829003601f168201915b505050505097508680546106b690611a1a565b80601f01602080910402602001604051908101604052809291908181526020018280546106e290611a1a565b801561072f5780601f106107045761010080835404028352916020019161072f565b820191906000526020600020905b81548152906001019060200180831161071257829003601f168201915b5050505050965085805461074290611a1a565b80601f016020809104026020016040519081016040528092919081815260200182805461076e90611a1a565b80156107bb5780601f10610790576101008083540402835291602001916107bb565b820191906000526020600020905b81548152906001019060200180831161079e57829003601f168201915b505050505095508380546107ce90611a1a565b80601f01602080910402602001604051908101604052809291908181526020018280546107fa90611a1a565b80156108475780601f1061081c57610100808354040283529160200191610847565b820191906000526020600020905b81548152906001019060200180831161082a57829003601f168201915b5050505050935082805461085a90611a1a565b80601f016020809104026020016040519081016040528092919081815260200182805461088690611a1a565b80156108d35780601f106108a8576101008083540402835291602001916108d3565b820191906000526020600020905b8154815290600101906020018083116108b657829003601f168201915b505050505092508180548060200260200160405190810160405280929190818152602001828054801561092557602002820191906000526020600020905b815481526020019060010190808311610911575b505050505091508080548060200260200160405190810160405280929190818152602001828054801561097757602002820191906000526020600020905b815481526020019060010190808311610963575b50505050509050995099509950995099509950995099509950509193959799909294969850565b606060018054806020026020016040519081016040528092919081815260200182805480156109f657602002820191906000526020600020905b81546001600160a01b031681526001909101906020018083116109d8575b5050505050905090565b3360009081526020819052604090206009015460ff16610a325760405162461bcd60e51b815260040161053c906119a5565b3360009081526020818152604090912088519091610a549183918b0190611308565b508651610a6a90600183019060208a0190611308565b508551610a809060028301906020890190611308565b508451610a969060038301906020880190611308565b50600481018490558251610ab39060058301906020860190611308565b508151610ac99060068301906020850190611308565b505050505050505050565b60018181548110610ae457600080fd5b6000918252602090912001546001600160a01b0316905081565b3360009081526020819052604090206009015460ff16610b305760405162461bcd60e51b815260040161053c906119a5565b33600081815260208181526040808320600781018054600181810183559186528486200187905560089091018054918201815584529190922042910181905590517fa50738ff51f8c2ad90f9c40d1e0a909a19fa83b0383dd5ef9daa38db79d7a52c91610b9f91859190611a00565b60405180910390a250565b3360009081526020819052604090206009015460ff1615610bdd5760405162461bcd60e51b815260040161053c9061196e565b336000908152602081815260409091208851610bfb928a0190611308565b50336000908152602081815260409091208751610c2092600190920191890190611308565b50336000908152602081815260409091208651610c4592600290920191880190611308565b50336000908152602081815260409091208551610c6a92600390920191870190611308565b5033600090815260208181526040909120600481018590558351610c9692600590920191850190611308565b50336000908152602081815260409091208251610cbb92600690920191840190611308565b5033600081815260208190526040808220600901805460ff191660019081179091558054808201825592527fb10e2d527612073b26eecdfd717e6a320cf44b4afac2b0732d9fcbe2b7fa0cf690910180546001600160a01b03191683179055517fff01b3ecc26b3af610387afbaee8b1d2f723cda2293e55adfaba9ae4c016d3ab90610d52908a908a908a908a908a908a90611743565b60405180910390a250505050505050565b60608060008180808080808680805b600154811015610e8f57600080600060018481548110610da257634e487b7160e01b600052603260045260246000fd5b9060005260206000200160009054906101000a90046001600160a01b03166001600160a01b03166001600160a01b0316815260200190815260200160002090508e8051906020012081600001604051610dfb9190611647565b60405180910390201415610e7c578d511580610e3457508d5160208f0120604051610e2a906001840190611647565b6040518091039020145b15610e7c5760018281548110610e5a57634e487b7160e01b600052603260045260246000fd5b600091825260209091200154600194506001600160a01b03169250610e8f9050565b5080610e8781611a55565b915050610d72565b5081610ead5760405162461bcd60e51b815260040161053c906119d5565b6000806000836001600160a01b03166001600160a01b03168152602001908152602001600020905080600001816001018260040154836005018460030185600201866006018760070188600801888054610f0690611a1a565b80601f0160208091040260200160405190810160405280929190818152602001828054610f3290611a1a565b8015610f7f5780601f10610f5457610100808354040283529160200191610f7f565b820191906000526020600020905b815481529060010190602001808311610f6257829003601f168201915b50505050509850878054610f9290611a1a565b80601f0160208091040260200160405190810160405280929190818152602001828054610fbe90611a1a565b801561100b5780601f10610fe05761010080835404028352916020019161100b565b820191906000526020600020905b815481529060010190602001808311610fee57829003601f168201915b5050505050975085805461101e90611a1a565b80601f016020809104026020016040519081016040528092919081815260200182805461104a90611a1a565b80156110975780601f1061106c57610100808354040283529160200191611097565b820191906000526020600020905b81548152906001019060200180831161107a57829003601f168201915b505050505095508480546110aa90611a1a565b80601f01602080910402602001604051908101604052809291908181526020018280546110d690611a1a565b80156111235780601f106110f857610100808354040283529160200191611123565b820191906000526020600020905b81548152906001019060200180831161110657829003601f168201915b5050505050945083805461113690611a1a565b80601f016020809104026020016040519081016040528092919081815260200182805461116290611a1a565b80156111af5780601f10611184576101008083540402835291602001916111af565b820191906000526020600020905b81548152906001019060200180831161119257829003601f168201915b505050505093508280546111c290611a1a565b80601f01602080910402602001604051908101604052809291908181526020018280546111ee90611a1a565b801561123b5780601f106112105761010080835404028352916020019161123b565b820191906000526020600020905b81548152906001019060200180831161121e57829003601f168201915b505050505092508180548060200260200160405190810160405280929190818152602001828054801561128d57602002820191906000526020600020905b815481526020019060010190808311611279575b50505050509150808054806020026020016040519081016040528092919081815260200182805480156112df57602002820191906000526020600020905b8154815260200190600101908083116112cb575b505050505090509b509b509b509b509b509b509b509b509b505050509295985092959850929598565b82805461131490611a1a565b90600052602060002090601f016020900481019282611336576000855561137c565b82601f1061134f57805160ff191683800117855561137c565b8280016001018555821561137c579182015b8281111561137c578251825591602001919060010190611361565b5061138892915061138c565b5090565b5b80821115611388576000815560010161138d565b600082601f8301126113b1578081fd5b813567ffffffffffffffff808211156113cc576113cc611a7c565b604051601f8301601f1916810160200182811182821017156113f0576113f0611a7c565b604052828152848301602001861015611407578384fd5b82602086016020830137918201602001929092529392505050565b600060208284031215611433578081fd5b81356001600160a01b0381168114611449578182fd5b9392505050565b60008060408385031215611462578081fd5b823567ffffffffffffffff80821115611479578283fd5b611485868387016113a1565b9350602085013591508082111561149a578283fd5b506114a7858286016113a1565b9150509250929050565b600080600080600080600060e0888a0312156114cb578283fd5b873567ffffffffffffffff808211156114e2578485fd5b6114ee8b838c016113a1565b985060208a0135915080821115611503578485fd5b61150f8b838c016113a1565b975060408a0135915080821115611524578485fd5b6115308b838c016113a1565b965060608a0135915080821115611545578485fd5b6115518b838c016113a1565b955060808a0135945060a08a013591508082111561156d578384fd5b6115798b838c016113a1565b935060c08a013591508082111561158e578283fd5b5061159b8a828b016113a1565b91505092959891949750929550565b6000602082840312156115bb578081fd5b5035919050565b6000815180845260208085019450808401835b838110156115f1578151875295820195908201906001016115d5565b509495945050505050565b60008151808452815b8181101561162157602081850181015186830182015201611605565b818111156116325782602083870101525b50601f01601f19169290920160200192915050565b815460009081906002810460018083168061166357607f831692505b602080841082141561168357634e487b7160e01b87526022600452602487fd5b81801561169757600181146116a8576116d4565b60ff198616895284890196506116d4565b6116b18a611a0e565b885b868110156116cc5781548b8201529085019083016116b3565b505084890196505b509498975050505050505050565b6001600160a01b0391909116815260200190565b6020808252825182820181905260009190848201906040850190845b818110156117375783516001600160a01b031683529284019291840191600101611712565b50909695505050505050565b600060c0825261175660c08301896115fc565b828103602084015261176881896115fc565b9050828103604084015261177c81886115fc565b9050828103606084015261179081876115fc565b905084608084015282810360a08401526117aa81856115fc565b9998505050505050505050565b60006101208083526117cb8184018d6115fc565b905082810360208401526117df818c6115fc565b905082810360408401526117f3818b6115fc565b90508281036060840152611807818a6115fc565b905087608084015282810360a084015261182181886115fc565b905082810360c084015261183581876115fc565b905082810360e084015261184981866115c2565b905082810361010084015261185e81856115c2565b9c9b505050505050505050505050565b60006101008083526118828184018c6115fc565b90508281036020840152611896818b6115fc565b905082810360408401526118aa818a6115fc565b905082810360608401526118be81896115fc565b905086608084015282810360a08401526118d881876115fc565b905082810360c08401526118ec81866115fc565b91505082151560e08301529998505050505050505050565b60006101208083526119188184018d6115fc565b9050828103602084015261192c818c6115fc565b90508960408401528281036060840152611946818a6115fc565b9050828103608084015261195a81896115fc565b905082810360a084015261182181886115fc565b6020808252601a908201527f50617469656e7420616c72656164792072656769737465726564000000000000604082015260600190565b60208082526016908201527514185d1a595b9d081b9bdd081c9959da5cdd195c995960521b604082015260600190565b60208082526011908201527014185d1a595b9d081b9bdd08199bdd5b99607a1b604082015260600190565b918252602082015260400190565b60009081526020902090565b600281046001821680611a2e57607f821691505b60208210811415611a4f57634e487b7160e01b600052602260045260246000fd5b50919050565b6000600019821415611a7557634e487b7160e01b81526011600452602481fd5b5060010190565b634e487b7160e01b600052604160045260246000fdfea26469706673582212206e584200285965e49450b8bf11a5433e805df37b6c9d5fef48b903d96e9c758b64736f6c63430008000033",
  "immutableReferences": {},
  "source": "// SPDX-License-Identifier: MIT\r\npragma solidity ^0.8.0;\r\n\r\ncontract MedicalRecord {\r\n    struct Patient {\r\n        string name;\r\n        string medicalFolder;\r\n        string phoneNumber;\r\n        string email;\r\n        uint256 age;\r\n        string gender;\r\n        string medicalDescription;\r\n        uint256[] temperatures;\r\n        uint256[] timestamps;\r\n        bool exists;\r\n    }\r\n    \r\n    mapping(address => Patient) public patients;\r\n    address[] public patientAddresses;\r\n    \r\n    event TemperatureRecorded(address indexed patientAddress, uint256 temperature, uint256 timestamp);\r\n    event PatientRegistered(\r\n        address indexed patientAddress, \r\n        string name,\r\n        string medicalFolder,\r\n        string phoneNumber,\r\n        string email,\r\n        uint256 age,\r\n        string gender\r\n    );\r\n    \r\n    function registerPatient(\r\n        string memory _name,\r\n        string memory _medicalFolder,\r\n        string memory _phoneNumber,\r\n        string memory _email,\r\n        uint256 _age,\r\n        string memory _gender,\r\n        string memory _medicalDescription\r\n    ) public {\r\n        require(!patients[msg.sender].exists, \"Patient already registered\");\r\n        \r\n        patients[msg.sender].name = _name;\r\n        patients[msg.sender].medicalFolder = _medicalFolder;\r\n        patients[msg.sender].phoneNumber = _phoneNumber;\r\n        patients[msg.sender].email = _email;\r\n        patients[msg.sender].age = _age;\r\n        patients[msg.sender].gender = _gender;\r\n        patients[msg.sender].medicalDescription = _medicalDescription;\r\n        patients[msg.sender].exists = true;\r\n        \r\n        patientAddresses.push(msg.sender);\r\n        \r\n        emit PatientRegistered(\r\n            msg.sender, \r\n            _name,\r\n            _medicalFolder,\r\n            _phoneNumber,\r\n            _email,\r\n            _age,\r\n            _gender\r\n        );\r\n    }\r\n    \r\n    function recordTemperature(uint256 _temperature) public {\r\n        require(patients[msg.sender].exists, \"Patient not registered\");\r\n        \r\n        patients[msg.sender].temperatures.push(_temperature);\r\n        patients[msg.sender].timestamps.push(block.timestamp);\r\n        \r\n        emit TemperatureRecorded(msg.sender, _temperature, block.timestamp);\r\n    }\r\n    \r\n    function getPatientData(address _patientAddress) public view returns (\r\n        string memory name,\r\n        string memory medicalFolder,\r\n        string memory phoneNumber,\r\n        string memory email,\r\n        uint256 age,\r\n        string memory gender,\r\n        string memory medicalDescription,\r\n        uint256[] memory temperatures,\r\n        uint256[] memory timestamps\r\n    ) {\r\n        require(patients[_patientAddress].exists, \"Patient not found\");\r\n        \r\n        Patient storage patient = patients[_patientAddress];\r\n        return (\r\n            patient.name,\r\n            patient.medicalFolder,\r\n            patient.phoneNumber,\r\n            patient.email,\r\n            patient.age,\r\n            patient.gender,\r\n            patient.medicalDescription,\r\n            patient.temperatures,\r\n            patient.timestamps\r\n        );\r\n    }\r\n\r\n    function updatePatientInfo(\r\n        string memory _name,\r\n        string memory _medicalFolder,\r\n        string memory _phoneNumber,\r\n        string memory _email,\r\n        uint256 _age,\r\n        string memory _gender,\r\n        string memory _medicalDescription\r\n    ) public {\r\n        require(patients[msg.sender].exists, \"Patient not registered\");\r\n        \r\n        Patient storage patient = patients[msg.sender];\r\n        patient.name = _name;\r\n        patient.medicalFolder = _medicalFolder;\r\n        patient.phoneNumber = _phoneNumber;\r\n        patient.email = _email;\r\n        patient.age = _age;\r\n        patient.gender = _gender;\r\n        patient.medicalDescription = _medicalDescription;\r\n    }\r\n\r\n    function searchPatient(string memory _name, string memory _folderNumber) public view returns (\r\n        string memory name,\r\n        string memory medicalFolder,\r\n        uint256 age,\r\n        string memory gender,\r\n        string memory email,\r\n        string memory phoneNumber,\r\n        string memory medicalDescription,\r\n        uint256[] memory temperatures,\r\n        uint256[] memory timestamps\r\n    ) {\r\n        bool found = false;\r\n        address patientAddr;\r\n        \r\n        // First try to find by name\r\n        for (uint i = 0; i < patientAddresses.length; i++) {\r\n            Patient storage patient = patients[patientAddresses[i]];\r\n            if (keccak256(bytes(patient.name)) == keccak256(bytes(_name))) {\r\n                // If folder number is empty or matches\r\n                if (bytes(_folderNumber).length == 0 || \r\n                    keccak256(bytes(patient.medicalFolder)) == keccak256(bytes(_folderNumber))) {\r\n                    patientAddr = patientAddresses[i];\r\n                    found = true;\r\n                    break;\r\n                }\r\n            }\r\n        }\r\n        \r\n        require(found, \"Patient not found\");\r\n        \r\n        Patient storage patient = patients[patientAddr];\r\n        return (\r\n            patient.name,\r\n            patient.medicalFolder,\r\n            patient.age,\r\n            patient.gender,\r\n            patient.email,\r\n            patient.phoneNumber,\r\n            patient.medicalDescription,\r\n            patient.temperatures,\r\n            patient.timestamps\r\n        );\r\n    }\r\n\r\n    function getAllPatientAddresses() public view returns (address[] memory) {\r\n        return patientAddresses;\r\n    }\r\n} ",
  "sourcePath": "E:\\Eutherum\\contracts\\MedicalRecord.sol",
  "compiler": {
    "name": "solc",
    "version": "0.8.0+commit.c7dfd78e.Emscripten.clang"
  },
  "schemaVersion": "3.4.16",
  "updatedAt": "2024-11-30T13:44:48.492Z",
  "networkType": "ethereum",
  "devdoc": {
    "kind": "dev",
    "methods": {},
    "version": 1
  },
  "userdoc": {
    "kind": "user",
    "methods": {},
    "version": 1
  }
}