{
  "contractName": "MedicalRecord",
  "abi": [
    {
      "anonymous": false,
      "inputs": [
        {
          "indexed": true,
          "internalType": "address",
          "name": "patientAddress",
          "type": "address"
        },
        {
          "indexed": false,
          "internalType": "string",
          "name": "name",
          "type": "string"
        }
      ],
      "name": "PatientRegistered",
      "type": "event"
    },
    {
      "anonymous": false,
      "inputs": [
        {
          "indexed": true,
          "internalType": "address",
          "name": "patientAddress",
          "type": "address"
        },
        {
          "indexed": false,
          "internalType": "uint256",
          "name": "temperature",
          "type": "uint256"
        },
        {
          "indexed": false,
          "internalType": "uint256",
          "name": "timestamp",
          "type": "uint256"
        }
      ],
      "name": "TemperatureRecorded",
      "type": "event"
    },
    {
      "inputs": [
        {
          "internalType": "address",
          "name": "",
          "type": "address"
        }
      ],
      "name": "patients",
      "outputs": [
        {
          "internalType": "string",
          "name": "name",
          "type": "string"
        },
        {
          "internalType": "bool",
          "name": "exists",
          "type": "bool"
        }
      ],
      "stateMutability": "view",
      "type": "function",
      "constant": true
    },
    {
      "inputs": [
        {
          "internalType": "string",
          "name": "_name",
          "type": "string"
        }
      ],
      "name": "registerPatient",
      "outputs": [],
      "stateMutability": "nonpayable",
      "type": "function"
    },
    {
      "inputs": [
        {
          "internalType": "uint256",
          "name": "_temperature",
          "type": "uint256"
        }
      ],
      "name": "recordTemperature",
      "outputs": [],
      "stateMutability": "nonpayable",
      "type": "function"
    },
    {
      "inputs": [
        {
          "internalType": "address",
          "name": "_patientAddress",
          "type": "address"
        }
      ],
      "name": "getPatientData",
      "outputs": [
        {
          "internalType": "string",
          "name": "name",
          "type": "string"
        },
        {
          "internalType": "uint256[]",
          "name": "temperatures",
          "type": "uint256[]"
        },
        {
          "internalType": "uint256[]",
          "name": "timestamps",
          "type": "uint256[]"
        }
      ],
      "stateMutability": "view",
      "type": "function",
      "constant": true
    }
  ],
  "bytecode": "0x608060405234801561001057600080fd5b50610863806100206000396000f3fe608060405234801561001057600080fd5b506004361061004c5760003560e01c80630869cfbc1461005157806348e818521461007b578063869c9eaf1461009d578063bfb299c1146100b2575b600080fd5b61006461005f3660046104d9565b6100c5565b60405161007292919061054f565b60405180910390f35b61008e6100893660046104d9565b61016c565b604051610072939291906105ae565b6100b06100ab366004610607565b610337565b005b6100b06100c03660046106b8565b61040c565b6000602081905290815260409020805481906100e0906106d1565b80601f016020809104026020016040519081016040528092919081815260200182805461010c906106d1565b80156101595780601f1061012e57610100808354040283529160200191610159565b820191906000526020600020905b81548152906001019060200180831161013c57829003601f168201915b5050506003909301549192505060ff1682565b6001600160a01b0381166000908152602081905260409020600301546060908190819060ff166101d75760405162461bcd60e51b815260206004820152601160248201527014185d1a595b9d081b9bdd08199bdd5b99607a1b60448201526064015b60405180910390fd5b6001600160a01b03841660009081526020819052604090208054600182019060028301908390610206906106d1565b80601f0160208091040260200160405190810160405280929190818152602001828054610232906106d1565b801561027f5780601f106102545761010080835404028352916020019161027f565b820191906000526020600020905b81548152906001019060200180831161026257829003601f168201915b50505050509250818054806020026020016040519081016040528092919081815260200182805480156102d157602002820191906000526020600020905b8154815260200190600101908083116102bd575b505050505091508080548060200260200160405190810160405280929190818152602001828054801561032357602002820191906000526020600020905b81548152602001906001019080831161030f575b505050505090509250925092509193909250565b3360009081526020819052604090206003015460ff161561039a5760405162461bcd60e51b815260206004820152601a60248201527f50617469656e7420616c7265616479207265676973746572656400000000000060448201526064016101ce565b3360009081526020819052604090206103b3828261075a565b503360008181526020819052604090819020600301805460ff19166001179055517fc85b128388b9c331a2a5485dce4cd0f3db9f7c279d327ce95d6d39d6c94644c79061040190849061081a565b60405180910390a250565b3360009081526020819052604090206003015460ff166104675760405162461bcd60e51b815260206004820152601660248201527514185d1a595b9d081b9bdd081c9959da5cdd195c995960521b60448201526064016101ce565b33600081815260208181526040808320600180820180548083018255908652848620018790556002909101805491820181558452928290204293018390558051858152918201929092527fa50738ff51f8c2ad90f9c40d1e0a909a19fa83b0383dd5ef9daa38db79d7a52c9101610401565b6000602082840312156104eb57600080fd5b81356001600160a01b038116811461050257600080fd5b9392505050565b6000815180845260005b8181101561052f57602081850181015186830182015201610513565b506000602082860101526020601f19601f83011685010191505092915050565b6040815260006105626040830185610509565b905082151560208301529392505050565b600081518084526020808501945080840160005b838110156105a357815187529582019590820190600101610587565b509495945050505050565b6060815260006105c16060830186610509565b82810360208401526105d38186610573565b905082810360408401526105e78185610573565b9695505050505050565b634e487b7160e01b600052604160045260246000fd5b60006020828403121561061957600080fd5b813567ffffffffffffffff8082111561063157600080fd5b818401915084601f83011261064557600080fd5b813581811115610657576106576105f1565b604051601f8201601f19908116603f0116810190838211818310171561067f5761067f6105f1565b8160405282815287602084870101111561069857600080fd5b826020860160208301376000928101602001929092525095945050505050565b6000602082840312156106ca57600080fd5b5035919050565b600181811c908216806106e557607f821691505b60208210810361070557634e487b7160e01b600052602260045260246000fd5b50919050565b601f82111561075557600081815260208120601f850160051c810160208610156107325750805b601f850160051c820191505b818110156107515782815560010161073e565b5050505b505050565b815167ffffffffffffffff811115610774576107746105f1565b6107888161078284546106d1565b8461070b565b602080601f8311600181146107bd57600084156107a55750858301515b600019600386901b1c1916600185901b178555610751565b600085815260208120601f198616915b828110156107ec578886015182559484019460019091019084016107cd565b508582101561080a5787850151600019600388901b60f8161c191681555b5050505050600190811b01905550565b602081526000610502602083018461050956fea2646970667358221220ec3282fcc4413b726aed22463561e02187a7ba8b773003750cffdcb896595ac864736f6c63430008130033",
  "immutableReferences": {},
  "source": "// SPDX-License-Identifier: MIT\r\npragma solidity ^0.8.0;\r\n\r\ncontract MedicalRecord {\r\n    struct Patient {\r\n        string name;\r\n        uint256[] temperatures;\r\n        uint256[] timestamps;\r\n        bool exists;\r\n    }\r\n    \r\n    mapping(address => Patient) public patients;\r\n    \r\n    event TemperatureRecorded(address indexed patientAddress, uint256 temperature, uint256 timestamp);\r\n    event PatientRegistered(address indexed patientAddress, string name);\r\n    \r\n    function registerPatient(string memory _name) public {\r\n        require(!patients[msg.sender].exists, \"Patient already registered\");\r\n        \r\n        patients[msg.sender].name = _name;\r\n        patients[msg.sender].exists = true;\r\n        \r\n        emit PatientRegistered(msg.sender, _name);\r\n    }\r\n    \r\n    function recordTemperature(uint256 _temperature) public {\r\n        require(patients[msg.sender].exists, \"Patient not registered\");\r\n        \r\n        patients[msg.sender].temperatures.push(_temperature);\r\n        patients[msg.sender].timestamps.push(block.timestamp);\r\n        \r\n        emit TemperatureRecorded(msg.sender, _temperature, block.timestamp);\r\n    }\r\n    \r\n    function getPatientData(address _patientAddress) public view returns (\r\n        string memory name,\r\n        uint256[] memory temperatures,\r\n        uint256[] memory timestamps\r\n    ) {\r\n        require(patients[_patientAddress].exists, \"Patient not found\");\r\n        \r\n        return (\r\n            patients[_patientAddress].name,\r\n            patients[_patientAddress].temperatures,\r\n            patients[_patientAddress].timestamps\r\n        );\r\n    }\r\n} ",
  "sourcePath": "E:\\Eutherum\\contracts\\MedicalRecord.sol",
  "compiler": {
    "name": "solc",
    "version": "0.8.19+commit.7dd6d404.Emscripten.clang"
  },
  "schemaVersion": "3.4.16",
  "updatedAt": "2024-11-26T16:55:16.616Z",
  "networkType": "ethereum",
  "devdoc": {
    "kind": "dev",
    "methods": {},
    "version": 1
  },
  "userdoc": {
    "kind": "user",
    "methods": {},
    "version": 1
  }
}